:0308C100010864C7
:1008AE00758901758CEEE4F58AF5A0D2AFD2A9D286
:0308BE008C80FE2D
:03000B0002088C5C
:10088C00C0E0C0D0758CEE758A000508C3E50894ED
:10089C00C874809480400663A0FF750800D0D0D047
:0208AC00E03238
:03000000020800F3
:0C080000787FE4F6D8FD758108020847F7
:10080C000208AEE493A3F8E493A34003F68001F24C
:10081C0008DFF48029E493A3F85407240CC8C333ED
:10082C00C4540F4420C8834004F456800146F6DFBC
:10083C00E4800B01020408102040809008C1E47E83
:10084C00019360BCA3FF543F30E509541FFEE493B1
:10085C00A360010ECF54C025E060A840B8E493A378
:10086C00FAE493A3F8E493A3C8C582C8CAC583CAA3
:10087C00F0A3C8C582C8CAC583CADFE9DEE780BE5B
:0108C4000033
:00000001FF
